{
  "contractName": "Election",
  "abi": [
    {
      "inputs": [],
      "payable": false,
      "stateMutability": "nonpayable",
      "type": "constructor"
    },
    {
      "constant": true,
      "inputs": [
        {
          "internalType": "uint256",
          "name": "",
          "type": "uint256"
        }
      ],
      "name": "candidates",
      "outputs": [
        {
          "internalType": "uint256",
          "name": "id",
          "type": "uint256"
        },
        {
          "internalType": "string",
          "name": "name",
          "type": "string"
        },
        {
          "internalType": "string",
          "name": "party",
          "type": "string"
        },
        {
          "internalType": "string",
          "name": "region",
          "type": "string"
        },
        {
          "internalType": "uint256",
          "name": "voteCount",
          "type": "uint256"
        }
      ],
      "payable": false,
      "stateMutability": "view",
      "type": "function"
    },
    {
      "constant": true,
      "inputs": [],
      "name": "candidatesCount",
      "outputs": [
        {
          "internalType": "uint256",
          "name": "",
          "type": "uint256"
        }
      ],
      "payable": false,
      "stateMutability": "view",
      "type": "function"
    }
  ],
  "bytecode": "0x608060405234801561001057600080fd5b506100c16040518060400160405280600f81526020017f4d7568616d6164752042756861726900000000000000000000000000000000008152506040518060400160405280600381526020017f41504300000000000000000000000000000000000000000000000000000000008152506040518060400160405280600281526020017f4e5700000000000000000000000000000000000000000000000000000000000081525061022660201b60201c565b6101716040518060400160405280600e81526020017f4174696b752041627562616b61720000000000000000000000000000000000008152506040518060400160405280600381526020017f50445000000000000000000000000000000000000000000000000000000000008152506040518060400160405280600281526020017f4e4500000000000000000000000000000000000000000000000000000000000081525061022660201b60201c565b6102216040518060400160405280600e81526020017f4e6a6f6b7520456d6d616e75656c0000000000000000000000000000000000008152506040518060400160405280600481526020017f41504741000000000000000000000000000000000000000000000000000000008152506040518060400160405280600281526020017f534500000000000000000000000000000000000000000000000000000000000081525061022660201b60201c565b61038e565b6001600081548092919060010191905055506040518060a0016040528060015481526020018481526020018381526020018281526020016000815250600080600154815260200190815260200160002060008201518160000155602082015181600101908051906020019061029c9291906102e9565b5060408201518160020190805190602001906102b99291906102e9565b5060608201518160030190805190602001906102d69291906102e9565b5060808201518160040155905050505050565b828054600181600116156101000203166002900490600052602060002090601f016020900481019282601f1061032a57805160ff1916838001178555610358565b82800160010185558215610358579182015b8281111561035757825182559160200191906001019061033c565b5b5090506103659190610369565b5090565b61038b91905b8082111561038757600081600090555060010161036f565b5090565b90565b61041f8061039d6000396000f3fe608060405234801561001057600080fd5b50600436106100365760003560e01c80632d35a8a21461003b5780633477ee2e14610059575b600080fd5b6100436101e6565b6040518082815260200191505060405180910390f35b6100856004803603602081101561006f57600080fd5b81019080803590602001909291905050506101ec565b60405180868152602001806020018060200180602001858152602001848103845288818151815260200191508051906020019080838360005b838110156100d95780820151818401526020810190506100be565b50505050905090810190601f1680156101065780820380516001836020036101000a031916815260200191505b50848103835287818151815260200191508051906020019080838360005b8381101561013f578082015181840152602081019050610124565b50505050905090810190601f16801561016c5780820380516001836020036101000a031916815260200191505b50848103825286818151815260200191508051906020019080838360005b838110156101a557808201518184015260208101905061018a565b50505050905090810190601f1680156101d25780820380516001836020036101000a031916815260200191505b509850505050505050505060405180910390f35b60015481565b6000602052806000526040600020600091509050806000015490806001018054600181600116156101000203166002900480601f01602080910402602001604051908101604052809291908181526020018280546001816001161561010002031660029004801561029e5780601f106102735761010080835404028352916020019161029e565b820191906000526020600020905b81548152906001019060200180831161028157829003601f168201915b505050505090806002018054600181600116156101000203166002900480601f01602080910402602001604051908101604052809291908181526020018280546001816001161561010002031660029004801561033c5780601f106103115761010080835404028352916020019161033c565b820191906000526020600020905b81548152906001019060200180831161031f57829003601f168201915b505050505090806003018054600181600116156101000203166002900480601f0160208091040260200160405190810160405280929190818152602001828054600181600116156101000203166002900480156103da5780601f106103af576101008083540402835291602001916103da565b820191906000526020600020905b8154815290600101906020018083116103bd57829003601f168201915b505050505090806004015490508556fea265627a7a7231582098cae91cc06114bb9f180665c96f576076f99e23980df9983ff0b32b3b5e786b64736f6c634300050c0032",
  "source": "pragma solidity ^0.5.11;\r\n\r\ncontract Election {\r\n    //model candidate\r\n\r\n    struct Candidate{\r\n    uint id;\r\n    string name;\r\n    string party;\r\n    string region;\r\n    uint voteCount;\r\n}\r\n//fetch candidates\r\nmapping(uint => Candidate) public candidates;\r\n\r\n//store candidates count\r\nuint public candidatesCount;\r\n//Constructor\r\nconstructor () public{\r\n  addCandidates(\"Muhamadu Buhari\", \"APC\", \"NW\");\r\n        addCandidates(\"Atiku Abubakar\", \"PDP\", \"NE\");\r\n        addCandidates(\"Njoku Emmanuel\", \"APGA\", \"SE\");\r\n}\r\n function addCandidates (string memory _name,  string memory _party, string memory _region)  private {\r\n            candidatesCount++;\r\n            candidates[candidatesCount] = Candidate(candidatesCount, _name, _party, _region, 0);\r\n        }\r\n\r\n\r\n\r\n\r\n\r\n}",
  "sourcePath": "C:/Users/HP/Desktop/Naijahacks-DecentralizedVotingApp/contracts/Election.sol",
  "compiler": {
    "name": "solc",
    "version": "0.5.12+commit.7709ece9.Emscripten.clang"
  },
  "schemaVersion": "3.0.19",
  "updatedAt": "2019-12-10T10:49:31.662Z",
  "networkType": "ethereum",
  "devdoc": {
    "methods": {}
  },
  "userdoc": {
    "methods": {}
  }
}